{
  "_format": "hh-sol-artifact-1",
  "contractName": "NFTSTORE",
  "sourceName": "contracts/NFTSTORE.sol",
  "abi": [
    {
      "inputs": [],
      "stateMutability": "nonpayable",
      "type": "constructor"
    },
    {
      "inputs": [
        {
          "internalType": "address",
          "name": "sender",
          "type": "address"
        },
        {
          "internalType": "uint256",
          "name": "tokenId",
          "type": "uint256"
        },
        {
          "internalType": "address",
          "name": "owner",
          "type": "address"
        }
      ],
      "name": "ERC721IncorrectOwner",
      "type": "error"
    },
    {
      "inputs": [
        {
          "internalType": "address",
          "name": "operator",
          "type": "address"
        },
        {
          "internalType": "uint256",
          "name": "tokenId",
          "type": "uint256"
        }
      ],
      "name": "ERC721InsufficientApproval",
      "type": "error"
    },
    {
      "inputs": [
        {
          "internalType": "address",
          "name": "approver",
          "type": "address"
        }
      ],
      "name": "ERC721InvalidApprover",
      "type": "error"
    },
    {
      "inputs": [
        {
          "internalType": "address",
          "name": "operator",
          "type": "address"
        }
      ],
      "name": "ERC721InvalidOperator",
      "type": "error"
    },
    {
      "inputs": [
        {
          "internalType": "address",
          "name": "owner",
          "type": "address"
        }
      ],
      "name": "ERC721InvalidOwner",
      "type": "error"
    },
    {
      "inputs": [
        {
          "internalType": "address",
          "name": "receiver",
          "type": "address"
        }
      ],
      "name": "ERC721InvalidReceiver",
      "type": "error"
    },
    {
      "inputs": [
        {
          "internalType": "address",
          "name": "sender",
          "type": "address"
        }
      ],
      "name": "ERC721InvalidSender",
      "type": "error"
    },
    {
      "inputs": [
        {
          "internalType": "uint256",
          "name": "tokenId",
          "type": "uint256"
        }
      ],
      "name": "ERC721NonexistentToken",
      "type": "error"
    },
    {
      "anonymous": false,
      "inputs": [
        {
          "indexed": true,
          "internalType": "address",
          "name": "owner",
          "type": "address"
        },
        {
          "indexed": true,
          "internalType": "address",
          "name": "approved",
          "type": "address"
        },
        {
          "indexed": true,
          "internalType": "uint256",
          "name": "tokenId",
          "type": "uint256"
        }
      ],
      "name": "Approval",
      "type": "event"
    },
    {
      "anonymous": false,
      "inputs": [
        {
          "indexed": true,
          "internalType": "address",
          "name": "owner",
          "type": "address"
        },
        {
          "indexed": true,
          "internalType": "address",
          "name": "operator",
          "type": "address"
        },
        {
          "indexed": false,
          "internalType": "bool",
          "name": "approved",
          "type": "bool"
        }
      ],
      "name": "ApprovalForAll",
      "type": "event"
    },
    {
      "anonymous": false,
      "inputs": [
        {
          "indexed": false,
          "internalType": "uint256",
          "name": "_fromTokenId",
          "type": "uint256"
        },
        {
          "indexed": false,
          "internalType": "uint256",
          "name": "_toTokenId",
          "type": "uint256"
        }
      ],
      "name": "BatchMetadataUpdate",
      "type": "event"
    },
    {
      "anonymous": false,
      "inputs": [
        {
          "indexed": false,
          "internalType": "uint256",
          "name": "_tokenId",
          "type": "uint256"
        }
      ],
      "name": "MetadataUpdate",
      "type": "event"
    },
    {
      "anonymous": false,
      "inputs": [
        {
          "indexed": true,
          "internalType": "address",
          "name": "from",
          "type": "address"
        },
        {
          "indexed": true,
          "internalType": "address",
          "name": "to",
          "type": "address"
        },
        {
          "indexed": true,
          "internalType": "uint256",
          "name": "tokenId",
          "type": "uint256"
        }
      ],
      "name": "Transfer",
      "type": "event"
    },
    {
      "inputs": [
        {
          "internalType": "address",
          "name": "to",
          "type": "address"
        },
        {
          "internalType": "uint256",
          "name": "tokenId",
          "type": "uint256"
        }
      ],
      "name": "approve",
      "outputs": [],
      "stateMutability": "nonpayable",
      "type": "function"
    },
    {
      "inputs": [
        {
          "internalType": "address",
          "name": "owner",
          "type": "address"
        }
      ],
      "name": "balanceOf",
      "outputs": [
        {
          "internalType": "uint256",
          "name": "",
          "type": "uint256"
        }
      ],
      "stateMutability": "view",
      "type": "function"
    },
    {
      "inputs": [
        {
          "internalType": "string",
          "name": "_tokenURI",
          "type": "string"
        },
        {
          "internalType": "uint256",
          "name": "_price",
          "type": "uint256"
        }
      ],
      "name": "createToken",
      "outputs": [
        {
          "internalType": "uint256",
          "name": "",
          "type": "uint256"
        }
      ],
      "stateMutability": "nonpayable",
      "type": "function"
    },
    {
      "inputs": [
        {
          "internalType": "uint256",
          "name": "tokenId",
          "type": "uint256"
        }
      ],
      "name": "executeSale",
      "outputs": [],
      "stateMutability": "payable",
      "type": "function"
    },
    {
      "inputs": [],
      "name": "getAllListedNFTs",
      "outputs": [
        {
          "components": [
            {
              "internalType": "uint256",
              "name": "tokenId",
              "type": "uint256"
            },
            {
              "internalType": "address payable",
              "name": "owner",
              "type": "address"
            },
            {
              "internalType": "address payable",
              "name": "seller",
              "type": "address"
            },
            {
              "internalType": "uint256",
              "name": "price",
              "type": "uint256"
            }
          ],
          "internalType": "struct NFTSTORE.NFTListing[]",
          "name": "",
          "type": "tuple[]"
        }
      ],
      "stateMutability": "view",
      "type": "function"
    },
    {
      "inputs": [
        {
          "internalType": "uint256",
          "name": "tokenId",
          "type": "uint256"
        }
      ],
      "name": "getApproved",
      "outputs": [
        {
          "internalType": "address",
          "name": "",
          "type": "address"
        }
      ],
      "stateMutability": "view",
      "type": "function"
    },
    {
      "inputs": [],
      "name": "getCurrentTokenId",
      "outputs": [
        {
          "internalType": "uint256",
          "name": "",
          "type": "uint256"
        }
      ],
      "stateMutability": "view",
      "type": "function"
    },
    {
      "inputs": [],
      "name": "getListingFeePercent",
      "outputs": [
        {
          "internalType": "uint256",
          "name": "",
          "type": "uint256"
        }
      ],
      "stateMutability": "view",
      "type": "function"
    },
    {
      "inputs": [],
      "name": "getMyNFTs",
      "outputs": [
        {
          "components": [
            {
              "internalType": "uint256",
              "name": "tokenId",
              "type": "uint256"
            },
            {
              "internalType": "address payable",
              "name": "owner",
              "type": "address"
            },
            {
              "internalType": "address payable",
              "name": "seller",
              "type": "address"
            },
            {
              "internalType": "uint256",
              "name": "price",
              "type": "uint256"
            }
          ],
          "internalType": "struct NFTSTORE.NFTListing[]",
          "name": "",
          "type": "tuple[]"
        }
      ],
      "stateMutability": "view",
      "type": "function"
    },
    {
      "inputs": [
        {
          "internalType": "uint256",
          "name": "_tokenId",
          "type": "uint256"
        }
      ],
      "name": "getNFTListing",
      "outputs": [
        {
          "components": [
            {
              "internalType": "uint256",
              "name": "tokenId",
              "type": "uint256"
            },
            {
              "internalType": "address payable",
              "name": "owner",
              "type": "address"
            },
            {
              "internalType": "address payable",
              "name": "seller",
              "type": "address"
            },
            {
              "internalType": "uint256",
              "name": "price",
              "type": "uint256"
            }
          ],
          "internalType": "struct NFTSTORE.NFTListing",
          "name": "",
          "type": "tuple"
        }
      ],
      "stateMutability": "view",
      "type": "function"
    },
    {
      "inputs": [
        {
          "internalType": "address",
          "name": "owner",
          "type": "address"
        },
        {
          "internalType": "address",
          "name": "operator",
          "type": "address"
        }
      ],
      "name": "isApprovedForAll",
      "outputs": [
        {
          "internalType": "bool",
          "name": "",
          "type": "bool"
        }
      ],
      "stateMutability": "view",
      "type": "function"
    },
    {
      "inputs": [],
      "name": "listingFeePercent",
      "outputs": [
        {
          "internalType": "uint256",
          "name": "",
          "type": "uint256"
        }
      ],
      "stateMutability": "view",
      "type": "function"
    },
    {
      "inputs": [],
      "name": "marketplaceOwner",
      "outputs": [
        {
          "internalType": "address payable",
          "name": "",
          "type": "address"
        }
      ],
      "stateMutability": "view",
      "type": "function"
    },
    {
      "inputs": [],
      "name": "name",
      "outputs": [
        {
          "internalType": "string",
          "name": "",
          "type": "string"
        }
      ],
      "stateMutability": "view",
      "type": "function"
    },
    {
      "inputs": [
        {
          "internalType": "uint256",
          "name": "tokenId",
          "type": "uint256"
        }
      ],
      "name": "ownerOf",
      "outputs": [
        {
          "internalType": "address",
          "name": "",
          "type": "address"
        }
      ],
      "stateMutability": "view",
      "type": "function"
    },
    {
      "inputs": [
        {
          "internalType": "address",
          "name": "from",
          "type": "address"
        },
        {
          "internalType": "address",
          "name": "to",
          "type": "address"
        },
        {
          "internalType": "uint256",
          "name": "tokenId",
          "type": "uint256"
        }
      ],
      "name": "safeTransferFrom",
      "outputs": [],
      "stateMutability": "nonpayable",
      "type": "function"
    },
    {
      "inputs": [
        {
          "internalType": "address",
          "name": "from",
          "type": "address"
        },
        {
          "internalType": "address",
          "name": "to",
          "type": "address"
        },
        {
          "internalType": "uint256",
          "name": "tokenId",
          "type": "uint256"
        },
        {
          "internalType": "bytes",
          "name": "data",
          "type": "bytes"
        }
      ],
      "name": "safeTransferFrom",
      "outputs": [],
      "stateMutability": "nonpayable",
      "type": "function"
    },
    {
      "inputs": [
        {
          "internalType": "address",
          "name": "operator",
          "type": "address"
        },
        {
          "internalType": "bool",
          "name": "approved",
          "type": "bool"
        }
      ],
      "name": "setApprovalForAll",
      "outputs": [],
      "stateMutability": "nonpayable",
      "type": "function"
    },
    {
      "inputs": [
        {
          "internalType": "bytes4",
          "name": "interfaceId",
          "type": "bytes4"
        }
      ],
      "name": "supportsInterface",
      "outputs": [
        {
          "internalType": "bool",
          "name": "",
          "type": "bool"
        }
      ],
      "stateMutability": "view",
      "type": "function"
    },
    {
      "inputs": [],
      "name": "symbol",
      "outputs": [
        {
          "internalType": "string",
          "name": "",
          "type": "string"
        }
      ],
      "stateMutability": "view",
      "type": "function"
    },
    {
      "inputs": [
        {
          "internalType": "uint256",
          "name": "tokenId",
          "type": "uint256"
        }
      ],
      "name": "tokenURI",
      "outputs": [
        {
          "internalType": "string",
          "name": "",
          "type": "string"
        }
      ],
      "stateMutability": "view",
      "type": "function"
    },
    {
      "inputs": [
        {
          "internalType": "address",
          "name": "from",
          "type": "address"
        },
        {
          "internalType": "address",
          "name": "to",
          "type": "address"
        },
        {
          "internalType": "uint256",
          "name": "tokenId",
          "type": "uint256"
        }
      ],
      "name": "transferFrom",
      "outputs": [],
      "stateMutability": "nonpayable",
      "type": "function"
    },
    {
      "inputs": [
        {
          "internalType": "uint256",
          "name": "_listingFeePercent",
          "type": "uint256"
        }
      ],
      "name": "updateListingFeePercent",
      "outputs": [],
      "stateMutability": "nonpayable",
      "type": "function"
    }
  ],
  "bytecode": "0x6080604052601460085534801561001557600080fd5b506040518060400160405280600881526020017f4e465453544f52450000000000000000000000000000000000000000000000008152506040518060400160405280600481526020017f4e465453000000000000000000000000000000000000000000000000000000008152508160009081610091919061033a565b5080600190816100a1919061033a565b50505033600760006101000a81548173ffffffffffffffffffffffffffffffffffffffff021916908373ffffffffffffffffffffffffffffffffffffffff16021790555061040c565b600081519050919050565b7f4e487b7100000000000000000000000000000000000000000000000000000000600052604160045260246000fd5b7f4e487b7100000000000000000000000000000000000000000000000000000000600052602260045260246000fd5b6000600282049050600182168061016b57607f821691505b60208210810361017e5761017d610124565b5b50919050565b60008190508160005260206000209050919050565b60006020601f8301049050919050565b600082821b905092915050565b6000600883026101e67fffffffffffffffffffffffffffffffffffffffffffffffffffffffffffffffff826101a9565b6101f086836101a9565b95508019841693508086168417925050509392505050565b6000819050919050565b6000819050919050565b600061023761023261022d84610208565b610212565b610208565b9050919050565b6000819050919050565b6102518361021c565b61026561025d8261023e565b8484546101b6565b825550505050565b600090565b61027a61026d565b610285818484610248565b505050565b5b818110156102a95761029e600082610272565b60018101905061028b565b5050565b601f8211156102ee576102bf81610184565b6102c884610199565b810160208510156102d7578190505b6102eb6102e385610199565b83018261028a565b50505b505050565b600082821c905092915050565b6000610311600019846008026102f3565b1980831691505092915050565b600061032a8383610300565b9150826002028217905092915050565b610343826100ea565b67ffffffffffffffff81111561035c5761035b6100f5565b5b6103668254610153565b6103718282856102ad565b600060209050601f8311600181146103a45760008415610392578287015190505b61039c858261031e565b865550610404565b601f1984166103b286610184565b60005b828110156103da578489015182556001820191506020850194506020810190506103b5565b868310156103f757848901516103f3601f891682610300565b8355505b6001600288020188555050505b505050505050565b61369f8061041b6000396000f3fe6080604052600436106101405760003560e01c8063629cb2e4116100b65780639b1225c41161006f5780639b1225c414610486578063a22cb465146104a2578063ac6a9185146104cb578063b88d4fde146104f4578063c87b56dd1461051d578063e985e9c51461055a57610140565b8063629cb2e41461034e5780636352211e14610379578063650025a0146103b657806370a08231146103e157806372b3b6201461041e57806395d89b411461045b57610140565b80630ea59c4b116101085780630ea59c4b1461023e57806323b872dd1461027b57806342842e0e146102a45780634b58ffaa146102cd57806356189236146102f85780636151ff2e1461032357610140565b806301ffc9a71461014557806306fc12451461018257806306fdde03146101ad578063081812fc146101d8578063095ea7b314610215575b600080fd5b34801561015157600080fd5b5061016c600480360381019061016791906126a1565b610597565b60405161017991906126e9565b60405180910390f35b34801561018e57600080fd5b506101976105f8565b6040516101a4919061271d565b60405180910390f35b3480156101b957600080fd5b506101c2610602565b6040516101cf91906127c8565b60405180910390f35b3480156101e457600080fd5b506101ff60048036038101906101fa9190612816565b610694565b60405161020c9190612884565b60405180910390f35b34801561022157600080fd5b5061023c600480360381019061023791906128cb565b6106b0565b005b34801561024a57600080fd5b5061026560048036038101906102609190612816565b6106c6565b6040516102729190612990565b60405180910390f35b34801561028757600080fd5b506102a2600480360381019061029d91906129ab565b6107b3565b005b3480156102b057600080fd5b506102cb60048036038101906102c691906129ab565b6108b5565b005b3480156102d957600080fd5b506102e26108d5565b6040516102ef9190612b02565b60405180910390f35b34801561030457600080fd5b5061030d610a68565b60405161031a919061271d565b60405180910390f35b34801561032f57600080fd5b50610338610a72565b604051610345919061271d565b60405180910390f35b34801561035a57600080fd5b50610363610a78565b6040516103709190612b02565b60405180910390f35b34801561038557600080fd5b506103a0600480360381019061039b9190612816565b610def565b6040516103ad9190612884565b60405180910390f35b3480156103c257600080fd5b506103cb610e01565b6040516103d89190612b33565b60405180910390f35b3480156103ed57600080fd5b5061040860048036038101906104039190612b4e565b610e27565b604051610415919061271d565b60405180910390f35b34801561042a57600080fd5b5061044560048036038101906104409190612cb0565b610ee1565b604051610452919061271d565b60405180910390f35b34801561046757600080fd5b50610470610f6c565b60405161047d91906127c8565b60405180910390f35b6104a0600480360381019061049b9190612816565b610ffe565b005b3480156104ae57600080fd5b506104c960048036038101906104c49190612d38565b6111d5565b005b3480156104d757600080fd5b506104f260048036038101906104ed9190612816565b6111eb565b005b34801561050057600080fd5b5061051b60048036038101906105169190612e19565b611285565b005b34801561052957600080fd5b50610544600480360381019061053f9190612816565b6112a2565b60405161055191906127c8565b60405180910390f35b34801561056657600080fd5b50610581600480360381019061057c9190612e9c565b6113b5565b60405161058e91906126e9565b60405180910390f35b6000634906490660e01b7bffffffffffffffffffffffffffffffffffffffffffffffffffffffff1916827bffffffffffffffffffffffffffffffffffffffffffffffffffffffff191614806105f157506105f082611449565b5b9050919050565b6000600854905090565b60606000805461061190612f0b565b80601f016020809104026020016040519081016040528092919081815260200182805461063d90612f0b565b801561068a5780601f1061065f5761010080835404028352916020019161068a565b820191906000526020600020905b81548152906001019060200180831161066d57829003601f168201915b5050505050905090565b600061069f8261152b565b506106a9826115b3565b9050919050565b6106c282826106bd6115f0565b6115f8565b5050565b6106ce6125e1565b600a6000838152602001908152602001600020604051806080016040529081600082015481526020016001820160009054906101000a900473ffffffffffffffffffffffffffffffffffffffff1673ffffffffffffffffffffffffffffffffffffffff1673ffffffffffffffffffffffffffffffffffffffff1681526020016002820160009054906101000a900473ffffffffffffffffffffffffffffffffffffffff1673ffffffffffffffffffffffffffffffffffffffff1673ffffffffffffffffffffffffffffffffffffffff1681526020016003820154815250509050919050565b600073ffffffffffffffffffffffffffffffffffffffff168273ffffffffffffffffffffffffffffffffffffffff16036108255760006040517f64a0ae9200000000000000000000000000000000000000000000000000000000815260040161081c9190612884565b60405180910390fd5b600061083983836108346115f0565b61160a565b90508373ffffffffffffffffffffffffffffffffffffffff168173ffffffffffffffffffffffffffffffffffffffff16146108af578382826040517f64283d7b0000000000000000000000000000000000000000000000000000000081526004016108a693929190612f3c565b60405180910390fd5b50505050565b6108d083838360405180602001604052806000815250611285565b505050565b60606000600954905060008167ffffffffffffffff8111156108fa576108f9612b85565b5b60405190808252806020026020018201604052801561093357816020015b6109206125e1565b8152602001906001900390816109185790505b5090506000600190505b828111610a5f57600a6000828152602001908152602001600020604051806080016040529081600082015481526020016001820160009054906101000a900473ffffffffffffffffffffffffffffffffffffffff1673ffffffffffffffffffffffffffffffffffffffff1673ffffffffffffffffffffffffffffffffffffffff1681526020016002820160009054906101000a900473ffffffffffffffffffffffffffffffffffffffff1673ffffffffffffffffffffffffffffffffffffffff1673ffffffffffffffffffffffffffffffffffffffff16815260200160038201548152505082600183610a309190612fa2565b81518110610a4157610a40612fd6565b5b60200260200101819052508080610a5790613005565b91505061093d565b50809250505090565b6000600954905090565b60085481565b606060006009549050600080600190505b828111610b88573373ffffffffffffffffffffffffffffffffffffffff16600a600083815260200190815260200160002060010160009054906101000a900473ffffffffffffffffffffffffffffffffffffffff1673ffffffffffffffffffffffffffffffffffffffff161480610b6157503373ffffffffffffffffffffffffffffffffffffffff16600a600083815260200190815260200160002060020160009054906101000a900473ffffffffffffffffffffffffffffffffffffffff1673ffffffffffffffffffffffffffffffffffffffff16145b15610b75578180610b7190613005565b9250505b8080610b8090613005565b915050610a89565b5060008167ffffffffffffffff811115610ba557610ba4612b85565b5b604051908082528060200260200182016040528015610bde57816020015b610bcb6125e1565b815260200190600190039081610bc35790505b509050600080600190505b848111610de4573373ffffffffffffffffffffffffffffffffffffffff16600a600083815260200190815260200160002060010160009054906101000a900473ffffffffffffffffffffffffffffffffffffffff1673ffffffffffffffffffffffffffffffffffffffff161480610cc157503373ffffffffffffffffffffffffffffffffffffffff16600a600083815260200190815260200160002060020160009054906101000a900473ffffffffffffffffffffffffffffffffffffffff1673ffffffffffffffffffffffffffffffffffffffff16145b15610dd157600a6000828152602001908152602001600020604051806080016040529081600082015481526020016001820160009054906101000a900473ffffffffffffffffffffffffffffffffffffffff1673ffffffffffffffffffffffffffffffffffffffff1673ffffffffffffffffffffffffffffffffffffffff1681526020016002820160009054906101000a900473ffffffffffffffffffffffffffffffffffffffff1673ffffffffffffffffffffffffffffffffffffffff1673ffffffffffffffffffffffffffffffffffffffff168152602001600382015481525050838381518110610db757610db6612fd6565b5b60200260200101819052508180610dcd90613005565b9250505b8080610ddc90613005565b915050610be9565b508194505050505090565b6000610dfa8261152b565b9050919050565b600760009054906101000a900473ffffffffffffffffffffffffffffffffffffffff1681565b60008073ffffffffffffffffffffffffffffffffffffffff168273ffffffffffffffffffffffffffffffffffffffff1603610e9a5760006040517f89c62b64000000000000000000000000000000000000000000000000000000008152600401610e919190612884565b60405180910390fd5b600360008373ffffffffffffffffffffffffffffffffffffffff1673ffffffffffffffffffffffffffffffffffffffff168152602001908152602001600020549050919050565b6000808211610f25576040517f08c379a0000000000000000000000000000000000000000000000000000000008152600401610f1c90613099565b60405180910390fd5b60096000815480929190610f3890613005565b919050555060006009549050610f4e3382611824565b610f588185611842565b610f62818461189e565b8091505092915050565b606060018054610f7b90612f0b565b80601f0160208091040260200160405190810160405280929190818152602001828054610fa790612f0b565b8015610ff45780601f10610fc957610100808354040283529160200191610ff4565b820191906000526020600020905b815481529060010190602001808311610fd757829003601f168201915b5050505050905090565b6000600a60008381526020019081526020016000209050600081600301549050803414611060576040517f08c379a00000000000000000000000000000000000000000000000000000000081526004016110579061312b565b60405180910390fd5b338260020160006101000a81548173ffffffffffffffffffffffffffffffffffffffff021916908373ffffffffffffffffffffffffffffffffffffffff1602179055506110d28260010160009054906101000a900473ffffffffffffffffffffffffffffffffffffffff1633856119a7565b60006064600854836110e4919061314b565b6110ee91906131bc565b9050600760009054906101000a900473ffffffffffffffffffffffffffffffffffffffff1673ffffffffffffffffffffffffffffffffffffffff166108fc829081150290604051600060405180830381858888f19350505050158015611158573d6000803e3d6000fd5b508260020160009054906101000a900473ffffffffffffffffffffffffffffffffffffffff1673ffffffffffffffffffffffffffffffffffffffff166108fc82346111a39190612fa2565b9081150290604051600060405180830381858888f193505050501580156111ce573d6000803e3d6000fd5b5050505050565b6111e76111e06115f0565b8383611b14565b5050565b600760009054906101000a900473ffffffffffffffffffffffffffffffffffffffff1673ffffffffffffffffffffffffffffffffffffffff163373ffffffffffffffffffffffffffffffffffffffff161461127b576040517f08c379a00000000000000000000000000000000000000000000000000000000081526004016112729061325f565b60405180910390fd5b8060088190555050565b6112908484846107b3565b61129c84848484611c83565b50505050565b60606112ad8261152b565b5060006006600084815260200190815260200160002080546112ce90612f0b565b80601f01602080910402602001604051908101604052809291908181526020018280546112fa90612f0b565b80156113475780601f1061131c57610100808354040283529160200191611347565b820191906000526020600020905b81548152906001019060200180831161132a57829003601f168201915b505050505090506000611358611e3a565b9050600081510361136d5781925050506113b0565b6000825111156113a257808260405160200161138a9291906132bb565b604051602081830303815290604052925050506113b0565b6113ab84611e51565b925050505b919050565b6000600560008473ffffffffffffffffffffffffffffffffffffffff1673ffffffffffffffffffffffffffffffffffffffff16815260200190815260200160002060008373ffffffffffffffffffffffffffffffffffffffff1673ffffffffffffffffffffffffffffffffffffffff16815260200190815260200160002060009054906101000a900460ff16905092915050565b60007f80ac58cd000000000000000000000000000000000000000000000000000000007bffffffffffffffffffffffffffffffffffffffffffffffffffffffff1916827bffffffffffffffffffffffffffffffffffffffffffffffffffffffff1916148061151457507f5b5e139f000000000000000000000000000000000000000000000000000000007bffffffffffffffffffffffffffffffffffffffffffffffffffffffff1916827bffffffffffffffffffffffffffffffffffffffffffffffffffffffff1916145b80611524575061152382611eba565b5b9050919050565b60008061153783611f24565b9050600073ffffffffffffffffffffffffffffffffffffffff168173ffffffffffffffffffffffffffffffffffffffff16036115aa57826040517f7e2732890000000000000000000000000000000000000000000000000000000081526004016115a1919061271d565b60405180910390fd5b80915050919050565b60006004600083815260200190815260200160002060009054906101000a900473ffffffffffffffffffffffffffffffffffffffff169050919050565b600033905090565b6116058383836001611f61565b505050565b60008061161684611f24565b9050600073ffffffffffffffffffffffffffffffffffffffff168373ffffffffffffffffffffffffffffffffffffffff161461165857611657818486612126565b5b600073ffffffffffffffffffffffffffffffffffffffff168173ffffffffffffffffffffffffffffffffffffffff16146116e95761169a600085600080611f61565b6001600360008373ffffffffffffffffffffffffffffffffffffffff1673ffffffffffffffffffffffffffffffffffffffff168152602001908152602001600020600082825403925050819055505b600073ffffffffffffffffffffffffffffffffffffffff168573ffffffffffffffffffffffffffffffffffffffff161461176c576001600360008773ffffffffffffffffffffffffffffffffffffffff1673ffffffffffffffffffffffffffffffffffffffff168152602001908152602001600020600082825401925050819055505b846002600086815260200190815260200160002060006101000a81548173ffffffffffffffffffffffffffffffffffffffff021916908373ffffffffffffffffffffffffffffffffffffffff160217905550838573ffffffffffffffffffffffffffffffffffffffff168273ffffffffffffffffffffffffffffffffffffffff167fddf252ad1be2c89b69c2b068fc378daa952ba7f163c4a11628f55a4df523b3ef60405160405180910390a4809150509392505050565b61183e8282604051806020016040528060008152506121ea565b5050565b80600660008481526020019081526020016000209081611862919061348b565b507ff8e1a15aba9398e019f0b49df1a4fde98ee17ae345cb5f6b5e2c27f5033e8ce782604051611892919061271d565b60405180910390a15050565b60405180608001604052808381526020013373ffffffffffffffffffffffffffffffffffffffff1681526020013373ffffffffffffffffffffffffffffffffffffffff16815260200182815250600a60008481526020019081526020016000206000820151816000015560208201518160010160006101000a81548173ffffffffffffffffffffffffffffffffffffffff021916908373ffffffffffffffffffffffffffffffffffffffff16021790555060408201518160020160006101000a81548173ffffffffffffffffffffffffffffffffffffffff021916908373ffffffffffffffffffffffffffffffffffffffff160217905550606082015181600301559050505050565b600073ffffffffffffffffffffffffffffffffffffffff168273ffffffffffffffffffffffffffffffffffffffff1603611a195760006040517f64a0ae92000000000000000000000000000000000000000000000000000000008152600401611a109190612884565b60405180910390fd5b6000611a278383600061160a565b9050600073ffffffffffffffffffffffffffffffffffffffff168173ffffffffffffffffffffffffffffffffffffffff1603611a9a57816040517f7e273289000000000000000000000000000000000000000000000000000000008152600401611a91919061271d565b60405180910390fd5b8373ffffffffffffffffffffffffffffffffffffffff168173ffffffffffffffffffffffffffffffffffffffff1614611b0e578382826040517f64283d7b000000000000000000000000000000000000000000000000000000008152600401611b0593929190612f3c565b60405180910390fd5b50505050565b600073ffffffffffffffffffffffffffffffffffffffff168273ffffffffffffffffffffffffffffffffffffffff1603611b8557816040517f5b08ba18000000000000000000000000000000000000000000000000000000008152600401611b7c9190612884565b60405180910390fd5b80600560008573ffffffffffffffffffffffffffffffffffffffff1673ffffffffffffffffffffffffffffffffffffffff16815260200190815260200160002060008473ffffffffffffffffffffffffffffffffffffffff1673ffffffffffffffffffffffffffffffffffffffff16815260200190815260200160002060006101000a81548160ff0219169083151502179055508173ffffffffffffffffffffffffffffffffffffffff168373ffffffffffffffffffffffffffffffffffffffff167f17307eab39ab6107e8899845ad3d59bd9653f200f220920489ca2b5937696c3183604051611c7691906126e9565b60405180910390a3505050565b60008373ffffffffffffffffffffffffffffffffffffffff163b1115611e34578273ffffffffffffffffffffffffffffffffffffffff1663150b7a02611cc76115f0565b8685856040518563ffffffff1660e01b8152600401611ce994939291906135b2565b6020604051808303816000875af1925050508015611d2557506040513d601f19601f82011682018060405250810190611d229190613613565b60015b611da9573d8060008114611d55576040519150601f19603f3d011682016040523d82523d6000602084013e611d5a565b606091505b506000815103611da157836040517f64a0ae92000000000000000000000000000000000000000000000000000000008152600401611d989190612884565b60405180910390fd5b805181602001fd5b63150b7a0260e01b7bffffffffffffffffffffffffffffffffffffffffffffffffffffffff1916817bffffffffffffffffffffffffffffffffffffffffffffffffffffffff191614611e3257836040517f64a0ae92000000000000000000000000000000000000000000000000000000008152600401611e299190612884565b60405180910390fd5b505b50505050565b606060405180602001604052806000815250905090565b6060611e5c8261152b565b506000611e67611e3a565b90506000815111611e875760405180602001604052806000815250611eb2565b80611e9184612206565b604051602001611ea29291906132bb565b6040516020818303038152906040525b915050919050565b60007f01ffc9a7000000000000000000000000000000000000000000000000000000007bffffffffffffffffffffffffffffffffffffffffffffffffffffffff1916827bffffffffffffffffffffffffffffffffffffffffffffffffffffffff1916149050919050565b60006002600083815260200190815260200160002060009054906101000a900473ffffffffffffffffffffffffffffffffffffffff169050919050565b8080611f9a5750600073ffffffffffffffffffffffffffffffffffffffff168273ffffffffffffffffffffffffffffffffffffffff1614155b156120ce576000611faa8461152b565b9050600073ffffffffffffffffffffffffffffffffffffffff168373ffffffffffffffffffffffffffffffffffffffff161415801561201557508273ffffffffffffffffffffffffffffffffffffffff168173ffffffffffffffffffffffffffffffffffffffff1614155b8015612028575061202681846113b5565b155b1561206a57826040517fa9fbf51f0000000000000000000000000000000000000000000000000000000081526004016120619190612884565b60405180910390fd5b81156120cc57838573ffffffffffffffffffffffffffffffffffffffff168273ffffffffffffffffffffffffffffffffffffffff167f8c5be1e5ebec7d5bd14f71427d1e84f3dd0314c0f7b2291e5b200ac8c7c3b92560405160405180910390a45b505b836004600085815260200190815260200160002060006101000a81548173ffffffffffffffffffffffffffffffffffffffff021916908373ffffffffffffffffffffffffffffffffffffffff16021790555050505050565b6121318383836122d4565b6121e557600073ffffffffffffffffffffffffffffffffffffffff168373ffffffffffffffffffffffffffffffffffffffff16036121a657806040517f7e27328900000000000000000000000000000000000000000000000000000000815260040161219d919061271d565b60405180910390fd5b81816040517f177e802f0000000000000000000000000000000000000000000000000000000081526004016121dc929190613640565b60405180910390fd5b505050565b6121f48383612395565b6122016000848484611c83565b505050565b6060600060016122158461248e565b01905060008167ffffffffffffffff81111561223457612233612b85565b5b6040519080825280601f01601f1916602001820160405280156122665781602001600182028036833780820191505090505b509050600082602001820190505b6001156122c9578080600190039150507f3031323334353637383961626364656600000000000000000000000000000000600a86061a8153600a85816122bd576122bc61318d565b5b04945060008503612274575b819350505050919050565b60008073ffffffffffffffffffffffffffffffffffffffff168373ffffffffffffffffffffffffffffffffffffffff161415801561238c57508273ffffffffffffffffffffffffffffffffffffffff168473ffffffffffffffffffffffffffffffffffffffff16148061234d575061234c84846113b5565b5b8061238b57508273ffffffffffffffffffffffffffffffffffffffff16612373836115b3565b73ffffffffffffffffffffffffffffffffffffffff16145b5b90509392505050565b600073ffffffffffffffffffffffffffffffffffffffff168273ffffffffffffffffffffffffffffffffffffffff16036124075760006040517f64a0ae920000000000000000000000000000000000000000000000000000000081526004016123fe9190612884565b60405180910390fd5b60006124158383600061160a565b9050600073ffffffffffffffffffffffffffffffffffffffff168173ffffffffffffffffffffffffffffffffffffffff16146124895760006040517f73c6ac6e0000000000000000000000000000000000000000000000000000000081526004016124809190612884565b60405180910390fd5b505050565b600080600090507a184f03e93ff9f4daa797ed6e38ed64bf6a1f01000000000000000083106124ec577a184f03e93ff9f4daa797ed6e38ed64bf6a1f01000000000000000083816124e2576124e161318d565b5b0492506040810190505b6d04ee2d6d415b85acef81000000008310612529576d04ee2d6d415b85acef8100000000838161251f5761251e61318d565b5b0492506020810190505b662386f26fc10000831061255857662386f26fc10000838161254e5761254d61318d565b5b0492506010810190505b6305f5e1008310612581576305f5e10083816125775761257661318d565b5b0492506008810190505b61271083106125a657612710838161259c5761259b61318d565b5b0492506004810190505b606483106125c957606483816125bf576125be61318d565b5b0492506002810190505b600a83106125d8576001810190505b80915050919050565b604051806080016040528060008152602001600073ffffffffffffffffffffffffffffffffffffffff168152602001600073ffffffffffffffffffffffffffffffffffffffff168152602001600081525090565b6000604051905090565b600080fd5b600080fd5b60007fffffffff0000000000000000000000000000000000000000000000000000000082169050919050565b61267e81612649565b811461268957600080fd5b50565b60008135905061269b81612675565b92915050565b6000602082840312156126b7576126b661263f565b5b60006126c58482850161268c565b91505092915050565b60008115159050919050565b6126e3816126ce565b82525050565b60006020820190506126fe60008301846126da565b92915050565b6000819050919050565b61271781612704565b82525050565b6000602082019050612732600083018461270e565b92915050565b600081519050919050565b600082825260208201905092915050565b60005b83811015612772578082015181840152602081019050612757565b60008484015250505050565b6000601f19601f8301169050919050565b600061279a82612738565b6127a48185612743565b93506127b4818560208601612754565b6127bd8161277e565b840191505092915050565b600060208201905081810360008301526127e2818461278f565b905092915050565b6127f381612704565b81146127fe57600080fd5b50565b600081359050612810816127ea565b92915050565b60006020828403121561282c5761282b61263f565b5b600061283a84828501612801565b91505092915050565b600073ffffffffffffffffffffffffffffffffffffffff82169050919050565b600061286e82612843565b9050919050565b61287e81612863565b82525050565b60006020820190506128996000830184612875565b92915050565b6128a881612863565b81146128b357600080fd5b50565b6000813590506128c58161289f565b92915050565b600080604083850312156128e2576128e161263f565b5b60006128f0858286016128b6565b925050602061290185828601612801565b9150509250929050565b61291481612704565b82525050565b600061292582612843565b9050919050565b6129358161291a565b82525050565b608082016000820151612951600085018261290b565b506020820151612964602085018261292c565b506040820151612977604085018261292c565b50606082015161298a606085018261290b565b50505050565b60006080820190506129a5600083018461293b565b92915050565b6000806000606084860312156129c4576129c361263f565b5b60006129d2868287016128b6565b93505060206129e3868287016128b6565b92505060406129f486828701612801565b9150509250925092565b600081519050919050565b600082825260208201905092915050565b6000819050602082019050919050565b608082016000820151612a40600085018261290b565b506020820151612a53602085018261292c565b506040820151612a66604085018261292c565b506060820151612a79606085018261290b565b50505050565b6000612a8b8383612a2a565b60808301905092915050565b6000602082019050919050565b6000612aaf826129fe565b612ab98185612a09565b9350612ac483612a1a565b8060005b83811015612af5578151612adc8882612a7f565b9750612ae783612a97565b925050600181019050612ac8565b5085935050505092915050565b60006020820190508181036000830152612b1c8184612aa4565b905092915050565b612b2d8161291a565b82525050565b6000602082019050612b486000830184612b24565b92915050565b600060208284031215612b6457612b6361263f565b5b6000612b72848285016128b6565b91505092915050565b600080fd5b600080fd5b7f4e487b7100000000000000000000000000000000000000000000000000000000600052604160045260246000fd5b612bbd8261277e565b810181811067ffffffffffffffff82111715612bdc57612bdb612b85565b5b80604052505050565b6000612bef612635565b9050612bfb8282612bb4565b919050565b600067ffffffffffffffff821115612c1b57612c1a612b85565b5b612c248261277e565b9050602081019050919050565b82818337600083830152505050565b6000612c53612c4e84612c00565b612be5565b905082815260208101848484011115612c6f57612c6e612b80565b5b612c7a848285612c31565b509392505050565b600082601f830112612c9757612c96612b7b565b5b8135612ca7848260208601612c40565b91505092915050565b60008060408385031215612cc757612cc661263f565b5b600083013567ffffffffffffffff811115612ce557612ce4612644565b5b612cf185828601612c82565b9250506020612d0285828601612801565b9150509250929050565b612d15816126ce565b8114612d2057600080fd5b50565b600081359050612d3281612d0c565b92915050565b60008060408385031215612d4f57612d4e61263f565b5b6000612d5d858286016128b6565b9250506020612d6e85828601612d23565b9150509250929050565b600067ffffffffffffffff821115612d9357612d92612b85565b5b612d9c8261277e565b9050602081019050919050565b6000612dbc612db784612d78565b612be5565b905082815260208101848484011115612dd857612dd7612b80565b5b612de3848285612c31565b509392505050565b600082601f830112612e0057612dff612b7b565b5b8135612e10848260208601612da9565b91505092915050565b60008060008060808587031215612e3357612e3261263f565b5b6000612e41878288016128b6565b9450506020612e52878288016128b6565b9350506040612e6387828801612801565b925050606085013567ffffffffffffffff811115612e8457612e83612644565b5b612e9087828801612deb565b91505092959194509250565b60008060408385031215612eb357612eb261263f565b5b6000612ec1858286016128b6565b9250506020612ed2858286016128b6565b9150509250929050565b7f4e487b7100000000000000000000000000000000000000000000000000000000600052602260045260246000fd5b60006002820490506001821680612f2357607f821691505b602082108103612f3657612f35612edc565b5b50919050565b6000606082019050612f516000830186612875565b612f5e602083018561270e565b612f6b6040830184612875565b949350505050565b7f4e487b7100000000000000000000000000000000000000000000000000000000600052601160045260246000fd5b6000612fad82612704565b9150612fb883612704565b9250828203905081811115612fd057612fcf612f73565b5b92915050565b7f4e487b7100000000000000000000000000000000000000000000000000000000600052603260045260246000fd5b600061301082612704565b91507fffffffffffffffffffffffffffffffffffffffffffffffffffffffffffffffff820361304257613041612f73565b5b600182019050919050565b7f5072696365206d7573742062652067726561746572207468616e207a65726f00600082015250565b6000613083601f83612743565b915061308e8261304d565b602082019050919050565b600060208201905081810360008301526130b281613076565b9050919050565b7f506c65617365207375626d6974207468652061736b696e67207072696365207460008201527f6f20636f6d706c65746520746865207075726368617365000000000000000000602082015250565b6000613115603783612743565b9150613120826130b9565b604082019050919050565b6000602082019050818103600083015261314481613108565b9050919050565b600061315682612704565b915061316183612704565b925082820261316f81612704565b9150828204841483151761318657613185612f73565b5b5092915050565b7f4e487b7100000000000000000000000000000000000000000000000000000000600052601260045260246000fd5b60006131c782612704565b91506131d283612704565b9250826131e2576131e161318d565b5b828204905092915050565b7f4f6e6c79206f776e65722063616e2063616c6c20746869732066756e6374696f60008201527f6e00000000000000000000000000000000000000000000000000000000000000602082015250565b6000613249602183612743565b9150613254826131ed565b604082019050919050565b600060208201905081810360008301526132788161323c565b9050919050565b600081905092915050565b600061329582612738565b61329f818561327f565b93506132af818560208601612754565b80840191505092915050565b60006132c7828561328a565b91506132d3828461328a565b91508190509392505050565b60008190508160005260206000209050919050565b60006020601f8301049050919050565b600082821b905092915050565b6000600883026133417fffffffffffffffffffffffffffffffffffffffffffffffffffffffffffffffff82613304565b61334b8683613304565b95508019841693508086168417925050509392505050565b6000819050919050565b600061338861338361337e84612704565b613363565b612704565b9050919050565b6000819050919050565b6133a28361336d565b6133b66133ae8261338f565b848454613311565b825550505050565b600090565b6133cb6133be565b6133d6818484613399565b505050565b5b818110156133fa576133ef6000826133c3565b6001810190506133dc565b5050565b601f82111561343f57613410816132df565b613419846132f4565b81016020851015613428578190505b61343c613434856132f4565b8301826133db565b50505b505050565b600082821c905092915050565b600061346260001984600802613444565b1980831691505092915050565b600061347b8383613451565b9150826002028217905092915050565b61349482612738565b67ffffffffffffffff8111156134ad576134ac612b85565b5b6134b78254612f0b565b6134c28282856133fe565b600060209050601f8311600181146134f557600084156134e3578287015190505b6134ed858261346f565b865550613555565b601f198416613503866132df565b60005b8281101561352b57848901518255600182019150602085019450602081019050613506565b868310156135485784890151613544601f891682613451565b8355505b6001600288020188555050505b505050505050565b600081519050919050565b600082825260208201905092915050565b60006135848261355d565b61358e8185613568565b935061359e818560208601612754565b6135a78161277e565b840191505092915050565b60006080820190506135c76000830187612875565b6135d46020830186612875565b6135e1604083018561270e565b81810360608301526135f38184613579565b905095945050505050565b60008151905061360d81612675565b92915050565b6000602082840312156136295761362861263f565b5b6000613637848285016135fe565b91505092915050565b60006040820190506136556000830185612875565b613662602083018461270e565b939250505056fea26469706673582212204112d174f82a8fcc00a0b6beaf56e75a45a005680e085e1e6faa41bf5cdd238f64736f6c634300081b0033",
  "linkReferences": {},
  "deployedLinkReferences": {}
}